{
  "contractName": "Camps",
  "abi": [
    {
      "anonymous": false,
      "inputs": [
        {
          "indexed": false,
          "internalType": "address",
          "name": "_camp",
          "type": "address"
        }
      ],
      "name": "targetReachedForCamp",
      "type": "event"
    },
    {
      "inputs": [
        {
          "internalType": "address",
          "name": "",
          "type": "address"
        }
      ],
      "name": "camps",
      "outputs": [
        {
          "internalType": "bool",
          "name": "campExists",
          "type": "bool"
        },
        {
          "internalType": "uint256",
          "name": "fundingRaised",
          "type": "uint256"
        },
        {
          "internalType": "uint256",
          "name": "target",
          "type": "uint256"
        },
        {
          "internalType": "uint256",
          "name": "equity",
          "type": "uint256"
        },
        {
          "internalType": "bool",
          "name": "targetReached",
          "type": "bool"
        }
      ],
      "stateMutability": "view",
      "type": "function",
      "constant": true
    },
    {
      "inputs": [
        {
          "internalType": "address",
          "name": "",
          "type": "address"
        },
        {
          "internalType": "address",
          "name": "",
          "type": "address"
        }
      ],
      "name": "funding",
      "outputs": [
        {
          "internalType": "uint256",
          "name": "",
          "type": "uint256"
        }
      ],
      "stateMutability": "view",
      "type": "function",
      "constant": true
    },
    {
      "inputs": [
        {
          "internalType": "address",
          "name": "_camp",
          "type": "address"
        },
        {
          "internalType": "uint256",
          "name": "_target",
          "type": "uint256"
        },
        {
          "internalType": "uint256",
          "name": "_equity",
          "type": "uint256"
        }
      ],
      "name": "createCamp",
      "outputs": [],
      "stateMutability": "nonpayable",
      "type": "function"
    },
    {
      "inputs": [
        {
          "internalType": "address",
          "name": "_angel",
          "type": "address"
        },
        {
          "internalType": "address",
          "name": "_camp",
          "type": "address"
        },
        {
          "internalType": "uint256",
          "name": "_amount",
          "type": "uint256"
        }
      ],
      "name": "buyEquity",
      "outputs": [],
      "stateMutability": "nonpayable",
      "type": "function"
    },
    {
      "inputs": [
        {
          "internalType": "address",
          "name": "_camp",
          "type": "address"
        }
      ],
      "name": "getAngelListLength",
      "outputs": [
        {
          "internalType": "uint256",
          "name": "",
          "type": "uint256"
        }
      ],
      "stateMutability": "view",
      "type": "function",
      "constant": true
    },
    {
      "inputs": [
        {
          "internalType": "address",
          "name": "_camp",
          "type": "address"
        }
      ],
      "name": "getAngelList",
      "outputs": [
        {
          "internalType": "address[]",
          "name": "",
          "type": "address[]"
        }
      ],
      "stateMutability": "view",
      "type": "function",
      "constant": true
    },
    {
      "inputs": [
        {
          "internalType": "address",
          "name": "_col",
          "type": "address"
        },
        {
          "internalType": "address",
          "name": "_camp",
          "type": "address"
        },
        {
          "internalType": "string",
          "name": "_position",
          "type": "string"
        },
        {
          "internalType": "uint256",
          "name": "_amount",
          "type": "uint256"
        }
      ],
      "name": "collab",
      "outputs": [],
      "stateMutability": "nonpayable",
      "type": "function"
    },
    {
      "inputs": [
        {
          "internalType": "address",
          "name": "_camp",
          "type": "address"
        }
      ],
      "name": "getCollabDetails",
      "outputs": [
        {
          "components": [
            {
              "internalType": "address",
              "name": "colAddress",
              "type": "address"
            },
            {
              "internalType": "uint256",
              "name": "amount",
              "type": "uint256"
            },
            {
              "internalType": "string",
              "name": "position",
              "type": "string"
            }
          ],
          "internalType": "struct Camps.CollaboratorsList[]",
          "name": "",
          "type": "tuple[]"
        }
      ],
      "stateMutability": "view",
      "type": "function",
      "constant": true
    }
  ],
  "bytecode": "0x608060405234801561001057600080fd5b5061167b806100206000396000f3fe608060405234801561001057600080fd5b50600436106100a5576000357c0100000000000000000000000000000000000000000000000000000000900480636e5cda3f116100785780636e5cda3f14610146578063b7f50b1714610176578063d4ca1d84146101a6578063f9add81e146101d6576100a5565b80632c93f988146100aa578063343ca73d146100da57806338ef1599146100f657806344431c7714610112575b600080fd5b6100c460048036038101906100bf9190610e89565b6101f2565b6040516100d19190611275565b60405180910390f35b6100f460048036038101906100ef9190610fb8565b6102c2565b005b610110600480360381019061010b9190610f69565b6104a0565b005b61012c60048036038101906101279190610e89565b610955565b60405161013d9594939291906112b9565b60405180910390f35b610160600480360381019061015b9190610e89565b6109a5565b60405161016d9190611297565b60405180910390f35b610190600480360381019061018b9190610e89565b610b38565b60405161019d919061134c565b60405180910390f35b6101c060048036038101906101bb9190610eb2565b610b87565b6040516101cd919061134c565b60405180910390f35b6101f060048036038101906101eb9190610eee565b610bac565b005b6060600160008373ffffffffffffffffffffffffffffffffffffffff1673ffffffffffffffffffffffffffffffffffffffff1681526020019081526020016000206002018054806020026020016040519081016040528092919081815260200182805480156102b657602002820191906000526020600020905b8160009054906101000a900473ffffffffffffffffffffffffffffffffffffffff1673ffffffffffffffffffffffffffffffffffffffff168152602001906001019080831161026c575b50505050509050919050565b60001515600160008573ffffffffffffffffffffffffffffffffffffffff1673ffffffffffffffffffffffffffffffffffffffff16815260200190815260200160002060000160009054906101000a900460ff16151514610358576040517f08c379a000000000000000000000000000000000000000000000000000000000815260040161034f9061132c565b60405180910390fd5b60018060008573ffffffffffffffffffffffffffffffffffffffff1673ffffffffffffffffffffffffffffffffffffffff16815260200190815260200160002060000160006101000a81548160ff02191690831515021790555081600160008573ffffffffffffffffffffffffffffffffffffffff1673ffffffffffffffffffffffffffffffffffffffff1681526020019081526020016000206004018190555080600160008573ffffffffffffffffffffffffffffffffffffffff1673ffffffffffffffffffffffffffffffffffffffff168152602001908152602001600020600501819055506000600160008573ffffffffffffffffffffffffffffffffffffffff1673ffffffffffffffffffffffffffffffffffffffff16815260200190815260200160002060060160006101000a81548160ff021916908315150217905550505050565b60011515600160008473ffffffffffffffffffffffffffffffffffffffff1673ffffffffffffffffffffffffffffffffffffffff16815260200190815260200160002060000160009054906101000a900460ff161515148015610556575060001515600160008473ffffffffffffffffffffffffffffffffffffffff1673ffffffffffffffffffffffffffffffffffffffff16815260200190815260200160002060060160009054906101000a900460ff161515145b610595576040517f08c379a000000000000000000000000000000000000000000000000000000000815260040161058c9061130c565b60405180910390fd5b600160008373ffffffffffffffffffffffffffffffffffffffff1673ffffffffffffffffffffffffffffffffffffffff1681526020019081526020016000206004015481600160008573ffffffffffffffffffffffffffffffffffffffff1673ffffffffffffffffffffffffffffffffffffffff168152602001908152602001600020600101546106269190611467565b106106865760018060008473ffffffffffffffffffffffffffffffffffffffff1673ffffffffffffffffffffffffffffffffffffffff16815260200190815260200160002060060160006101000a81548160ff0219169083151502179055505b806000808473ffffffffffffffffffffffffffffffffffffffff1673ffffffffffffffffffffffffffffffffffffffff16815260200190815260200160002060008573ffffffffffffffffffffffffffffffffffffffff1673ffffffffffffffffffffffffffffffffffffffff1681526020019081526020016000205461070d9190611467565b6000808473ffffffffffffffffffffffffffffffffffffffff1673ffffffffffffffffffffffffffffffffffffffff16815260200190815260200160002060008573ffffffffffffffffffffffffffffffffffffffff1673ffffffffffffffffffffffffffffffffffffffff1681526020019081526020016000208190555080600160008473ffffffffffffffffffffffffffffffffffffffff1673ffffffffffffffffffffffffffffffffffffffff168152602001908152602001600020600101546107da9190611467565b600160008473ffffffffffffffffffffffffffffffffffffffff1673ffffffffffffffffffffffffffffffffffffffff16815260200190815260200160002060010181905550600160008373ffffffffffffffffffffffffffffffffffffffff1673ffffffffffffffffffffffffffffffffffffffff168152602001908152602001600020600201839080600181540180825580915050600190039060005260206000200160009091909190916101000a81548173ffffffffffffffffffffffffffffffffffffffff021916908373ffffffffffffffffffffffffffffffffffffffff160217905550600160008373ffffffffffffffffffffffffffffffffffffffff1673ffffffffffffffffffffffffffffffffffffffff16815260200190815260200160002060060160009054906101000a900460ff1615610950577fa13ac8def81f33998d29b46ff52805497ccd12bc15d76006d7ec0e5982f93efc82604051610947919061125a565b60405180910390a15b505050565b60016020528060005260406000206000915090508060000160009054906101000a900460ff16908060010154908060040154908060050154908060060160009054906101000a900460ff16905085565b6060600160008373ffffffffffffffffffffffffffffffffffffffff1673ffffffffffffffffffffffffffffffffffffffff168152602001908152602001600020600301805480602002602001604051908101604052809291908181526020016000905b82821015610b2d57838290600052602060002090600302016040518060600160405290816000820160009054906101000a900473ffffffffffffffffffffffffffffffffffffffff1673ffffffffffffffffffffffffffffffffffffffff1673ffffffffffffffffffffffffffffffffffffffff16815260200160018201548152602001600282018054610a9c90611547565b80601f0160208091040260200160405190810160405280929190818152602001828054610ac890611547565b8015610b155780601f10610aea57610100808354040283529160200191610b15565b820191906000526020600020905b815481529060010190602001808311610af857829003601f168201915b50505050508152505081526020019060010190610a09565b505050509050919050565b6000600160008373ffffffffffffffffffffffffffffffffffffffff1673ffffffffffffffffffffffffffffffffffffffff168152602001908152602001600020600201805490509050919050565b6000602052816000526040600020602052806000526040600020600091509150505481565b60011515600160008573ffffffffffffffffffffffffffffffffffffffff1673ffffffffffffffffffffffffffffffffffffffff16815260200190815260200160002060000160009054906101000a900460ff16151514610c42576040517f08c379a0000000000000000000000000000000000000000000000000000000008152600401610c399061130c565b60405180910390fd5b600160008473ffffffffffffffffffffffffffffffffffffffff1673ffffffffffffffffffffffffffffffffffffffff16815260200190815260200160002060030160405180606001604052808673ffffffffffffffffffffffffffffffffffffffff16815260200183815260200184815250908060018154018082558091505060019003906000526020600020906003020160009091909190915060008201518160000160006101000a81548173ffffffffffffffffffffffffffffffffffffffff021916908373ffffffffffffffffffffffffffffffffffffffff160217905550602082015181600101556040820151816002019080519060200190610d4b929190610d54565b50505050505050565b828054610d6090611547565b90600052602060002090601f016020900481019282610d825760008555610dc9565b82601f10610d9b57805160ff1916838001178555610dc9565b82800160010185558215610dc9579182015b82811115610dc8578251825591602001919060010190610dad565b5b509050610dd69190610dda565b5090565b5b80821115610df3576000816000905550600101610ddb565b5090565b6000610e0a610e0584611398565b611367565b905082815260208101848484011115610e2257600080fd5b610e2d848285611505565b509392505050565b600081359050610e4481611617565b92915050565b600082601f830112610e5b57600080fd5b8135610e6b848260208601610df7565b91505092915050565b600081359050610e838161162e565b92915050565b600060208284031215610e9b57600080fd5b6000610ea984828501610e35565b91505092915050565b60008060408385031215610ec557600080fd5b6000610ed385828601610e35565b9250506020610ee485828601610e35565b9150509250929050565b60008060008060808587031215610f0457600080fd5b6000610f1287828801610e35565b9450506020610f2387828801610e35565b935050604085013567ffffffffffffffff811115610f4057600080fd5b610f4c87828801610e4a565b9250506060610f5d87828801610e74565b91505092959194509250565b600080600060608486031215610f7e57600080fd5b6000610f8c86828701610e35565b9350506020610f9d86828701610e35565b9250506040610fae86828701610e74565b9150509250925092565b600080600060608486031215610fcd57600080fd5b6000610fdb86828701610e35565b9350506020610fec86828701610e74565b9250506040610ffd86828701610e74565b9150509250925092565b60006110138383611033565b60208301905092915050565b600061102b83836111ec565b905092915050565b61103c816114bd565b82525050565b61104b816114bd565b82525050565b600061105c826113e8565b6110668185611423565b9350611071836113c8565b8060005b838110156110a25781516110898882611007565b975061109483611409565b925050600181019050611075565b5085935050505092915050565b60006110ba826113f3565b6110c48185611434565b9350836020820285016110d6856113d8565b8060005b8581101561111257848403895281516110f3858261101f565b94506110fe83611416565b925060208a019950506001810190506110da565b50829750879550505050505092915050565b61112d816114cf565b82525050565b600061113e826113fe565b6111488185611445565b9350611158818560208601611514565b61116181611606565b840191505092915050565b6000611179600e83611456565b91507f43616d70206e6f7420666f756e640000000000000000000000000000000000006000830152602082019050919050565b60006111b9601383611456565b91507f43616d7020616c726561647920657869737473000000000000000000000000006000830152602082019050919050565b60006060830160008301516112046000860182611033565b506020830151611217602086018261123c565b506040830151848203604086015261122f8282611133565b9150508091505092915050565b611245816114fb565b82525050565b611254816114fb565b82525050565b600060208201905061126f6000830184611042565b92915050565b6000602082019050818103600083015261128f8184611051565b905092915050565b600060208201905081810360008301526112b181846110af565b905092915050565b600060a0820190506112ce6000830188611124565b6112db602083018761124b565b6112e8604083018661124b565b6112f5606083018561124b565b6113026080830184611124565b9695505050505050565b600060208201905081810360008301526113258161116c565b9050919050565b60006020820190508181036000830152611345816111ac565b9050919050565b6000602082019050611361600083018461124b565b92915050565b6000604051905081810181811067ffffffffffffffff8211171561138e5761138d6115d7565b5b8060405250919050565b600067ffffffffffffffff8211156113b3576113b26115d7565b5b601f19601f8301169050602081019050919050565b6000819050602082019050919050565b6000819050602082019050919050565b600081519050919050565b600081519050919050565b600081519050919050565b6000602082019050919050565b6000602082019050919050565b600082825260208201905092915050565b600082825260208201905092915050565b600082825260208201905092915050565b600082825260208201905092915050565b6000611472826114fb565b915061147d836114fb565b9250827fffffffffffffffffffffffffffffffffffffffffffffffffffffffffffffffff038211156114b2576114b1611579565b5b828201905092915050565b60006114c8826114db565b9050919050565b60008115159050919050565b600073ffffffffffffffffffffffffffffffffffffffff82169050919050565b6000819050919050565b82818337600083830152505050565b60005b83811015611532578082015181840152602081019050611517565b83811115611541576000848401525b50505050565b6000600282049050600182168061155f57607f821691505b60208210811415611573576115726115a8565b5b50919050565b7f4e487b7100000000000000000000000000000000000000000000000000000000600052601160045260246000fd5b7f4e487b7100000000000000000000000000000000000000000000000000000000600052602260045260246000fd5b7f4e487b7100000000000000000000000000000000000000000000000000000000600052604160045260246000fd5b6000601f19601f8301169050919050565b611620816114bd565b811461162b57600080fd5b50565b611637816114fb565b811461164257600080fd5b5056fea264697066735822122001229ce3051a4cf8b5aa59a6cfbce14b25bf360a0fc36345227d5f92c95b3a5064736f6c63430008000033",
  "immutableReferences": {},
  "source": "// SPDX-License-Identifier: GPL-3.0\n\npragma solidity ^0.8.0;\n\n// Camp - A camp that is created by a Creative ( OP - Original Posters ) on Collective to raise funding\n\n// Angel - Angels are the users/investors who buy equity in exchange of CTV - CollectiveToken\n\n// Col - Collaborator who collaborates in a camp in exchange of CTV\n\ncontract Camps {\n    \n    // m => (camp_address => m (angel_address => investment_amount)) \n    mapping(address => mapping(address => uint)) public funding;\n    \n    \n    mapping(address => CampDetails) public camps;\n    \n    \n    // Struct to save collaborator details\n    \n    struct CollaboratorsList {\n        address colAddress;\n        uint amount;\n        string position;\n    }\n    \n    \n    // Camp details struct\n    \n    struct CampDetails{\n        bool campExists;\n        uint fundingRaised;\n        address[] angelList;\n        CollaboratorsList[] colList;\n        uint target;\n        uint equity;\n        bool targetReached;\n    }\n    \n    \n    \n    \n    // Create a new camp on Collective\n    \n    function createCamp(address _camp, uint _target, uint _equity) public {\n        require(camps[_camp].campExists == false,\"Camp already exists\");\n        camps[_camp].campExists = true;\n        camps[_camp].target = _target;\n        camps[_camp].equity = _equity;\n        camps[_camp].targetReached = false;\n    }\n    \n    \n    // Emit event when the camp target is reached\n    \n    event targetReachedForCamp(address _camp);\n    \n    \n    // Buying equity in the camp\n    \n    function buyEquity(address _angel,address _camp,uint _amount) public {\n        require(camps[_camp].campExists == true && camps[_camp].targetReached == false,'Camp not found');\n        if(camps[_camp].fundingRaised + _amount >= camps[_camp].target){\n            camps[_camp].targetReached = true;\n        }\n        funding[_camp][_angel] = funding[_camp][_angel] + _amount;\n        camps[_camp].fundingRaised = camps[_camp].fundingRaised + _amount;\n        camps[_camp].angelList.push(_angel);\n        \n\n        if(camps[_camp].targetReached){\n            emit targetReachedForCamp( _camp);\n        }\n        \n    }\n    \n\n    // get the total number of Angels who bought equity in a camp \n    // can also be used for fetching the total number of investments\n    \n    function getAngelListLength(address _camp) public view returns(uint){\n        return camps[_camp].angelList.length;\n    }\n    \n    \n     // get the list of Angels who bought equity in a camp \n    \n    function getAngelList(address _camp) public view returns(address[] memory){\n        return camps[_camp].angelList;\n    }\n    \n    \n    // Collaborate in a camp\n    \n    function collab(address _col,address _camp,string memory _position,uint _amount) public {\n        require(camps[_camp].campExists == true,'Camp not found');\n        camps[_camp].colList.push(CollaboratorsList({\n            colAddress : _col,\n            amount : _amount,\n            position : _position\n        }));\n    }\n    \n    \n    // Get collab details for a camp\n    \n    function getCollabDetails(address _camp) public view returns (CollaboratorsList[] memory){\n        return camps[_camp].colList;\n    }\n    \n}\n",
  "sourcePath": "D:\\_PCCOE\\BE\\BE PROJECT\\Collective\\backend\\contracts\\Camps.sol",
  "compiler": {
    "name": "solc",
    "version": "0.8.0+commit.c7dfd78e.Emscripten.clang"
  },
  "schemaVersion": "3.4.13",
  "updatedAt": "2023-05-08T16:30:51.203Z",
  "networkType": "ethereum",
  "devdoc": {
    "kind": "dev",
    "methods": {},
    "version": 1
  },
  "userdoc": {
    "kind": "user",
    "methods": {},
    "version": 1
  }
}